:020000040800F2
:1000000008040020490100089F010008970100082A
:100010009B010008910100087D020008000000001B
:10002000000000000000000000000000CB010008FC
:100030009501000800000000C9010008CD0100087A
:100040006301000863010008630100086301000800
:1000500063010008630100086301000863010008F0
:1000600063010008630100086301000863010008E0
:1000700063010008630100086301000863010008D0
:1000800063010008630100086301000863010008C0
:1000900063010008630100086301000863010008B0
:1000A00063010008630100086301000863010008A0
:1000B0006301000863010008630100086301000890
:1000C0006301000863010008630100086301000880
:1000D0006301000863010008630100086301000870
:1000E0006301000863010008630100086301000860
:1000F0006301000863010008630100086301000850
:10010000630100086301000863010008630100083F
:10011000630100086301000863010008630100082F
:10012000630100086301000863010008630100081F
:10013000DFF810D000F01AF800480047B9020008B4
:10014000AFF30080080400200648804706480047B7
:10015000FEE7FEE7FEE7FEE7FEE7FEE7FEE7FEE777
:10016000FEE7FEE7D501000831010008064C074D07
:1001700006E0E06840F0010394E807009847103477
:10018000AC42F6D3FFF7D8FF300400085004000853
:1001900000BFFEE7704700BFFEE700BFFEE7704705
:1001A00010B5002807DA0A07140E054A00F00F03FD
:1001B0001B1FD45403E00A07130E024A135410BD48
:1001C00018ED00E000E400E07047704710B500F063
:1001D00067F810BD08B52648006840F4700024494F
:1001E00008602448006840F001002249086000BF10
:1001F0002048006800F002000028F9D000BF1D4828
:10020000406840F080001B4948600020009002E0F8
:100210000098401C009000985028F9D31548406879
:1002200040F09000134948600020009002E00098E0
:10023000401C009000985028F9D300BF0D4840683A
:1002400020F003000B494860084600680A4908404E
:10025000084908604FF41F0088600846006820F4D1
:100260008020086000204860C86200F0B5F808BD32
:1002700088ED00E000100240FFFFF6FE00BFFEE741
:1002800002E008C8121F08C1002AFAD1704770475F
:10029000002001E001C1121F002AFBD170470000BD
:1002A0000448006820B103480068401E0149086006
:1002B000704700000000002010B500F091F8002009
:1002C00010BD0000002000213F4A126842F4803235
:1002D0003D4B1A6000BF401C3B4A126802F40031DB
:1002E00019B94FF6FF729042F5D1374A126802F4FD
:1002F00000320AB900BFFEE7334AD26942F08052A9
:10030000314BDA61314A126842F440422F4B1A6095
:100310002D4A52682C4B5A601A4652685A601A4647
:10032000526842F480625A601A46526822F440329F
:100330005A601A46526842F440325A601A4652686D
:10034000234B1A40204B5A601A465268214B1A43DD
:100350001D4B5A601A46126842F080721A6000BF44
:10036000194A126802F00072002AF9D0174A12687E
:1003700042F48032154B1A6000BF144A526802F4EE
:100380008032002AF9D0114A126842F400320F4B31
:100390001A6000BF0D4A526802F40032002AF9D0F8
:1003A000094A526822F00302074B5A601A46526803
:1003B00042F002025A6000BF034A526802F008028B
:1003C000002AF9D070470000001002400070004081
:1003D000FFFFC3B70000340810B5FFF773FF10BD6F
:1003E00010B5124800684FF47A71B0FBF1F4601E4A
:1003F000B0F1807F01D301200FE0601E4FF0E021BB
:1004000048610F214FF0FF30FFF7CAFE00204FF088
:10041000E021886107200861002008B100BFFEE7E5
:100420000021481EFFF7BCFE10BD000004000020A4
:1004300050040008000000200800000080020008AE
:100440005804000808000020000400009002000882
:0804500000000000000E270768
:0400000508000131BD
:00000001FF
