:020000040800F2
:10000000E8B2002009020008E9110008190D0008F3
:10001000E5110008A30A00085914000800000000B8
:10002000000000000000000000000000490100087E
:10003000C90B000800000000A50100082D130008EE
:1000400023020008230200082302000823020008FC
:100050002302000823020008CD0B00080D0C000845
:10006000210C0008350C0008490C00082302000888
:10007000A90A00082302000823020008230200083E
:1000800023020008230200082302000823020008BC
:1000900023020008230200082302000823020008AC
:1000A000230200082302000823020008230200089C
:1000B000230200082302000823020008230200088C
:1000C000230200082302000823020008230200087C
:1000D000230200082302000823020008230200086C
:1000E000230200082302000823020008230200085C
:1000F000230200082302000823020008230200084C
:10010000230200082302000823020008230200083B
:10011000230200082302000823020008230200082B
:10012000230200082302000823020008230200081B
:10013000DFF810D000F078FC0048004711480208B2
:10014000AFF30080E8B200202C4B19680868B0E8D3
:10015000F04F80F30988BFF36F8F4FF0000080F3FA
:10016000118870470000000008480068006880F3AC
:1001700008884FF0000080F3148862B661B6BFF3C0
:100180004F8FBFF36F8F00DF00BF00BF08ED00E0AF
:10019000DFF80C00016841F470010160704700BF96
:1001A00088ED00E0EFF30980BFF36F8F134B1A68FF
:1001B0001EF0100F08BF20ED108A20E9F04F1060EC
:1001C00009B44FF0500080F31188BFF34F8FBFF395
:1001D0006F8F2CF0D1FC4FF0000080F3118809BC28
:1001E00019680868B0E8F04F1EF0100F08BFB0ECB7
:1001F000108A80F30988BFF36F8F7047A002002038
:10020000EFF3058070470000064880470648004726
:10021000FEE7FEE7FEE7FEE7FEE7FEE7FEE7FEE7B6
:10022000FEE7FEE739130008310100082DE9F05F11
:100230000546002092469B46884606468146402455
:100240001BE0284641464746224600F0AAFA53469C
:100250005A46C01A914110D311461846224600F062
:1002600091FA2D1A67EB01084F4622460120002122
:1002700000F088FA17EB00094E41201EA4F101049A
:10028000DFDC484631462A464346BDE8F09F40EA57
:1002900001039B0703D009E008C9121F08C0042A04
:1002A000FAD203E011F8013B00F8013B521EF9D2EB
:1002B0007047D2B201E000F8012B491EFBD2704713
:1002C0000022F6E710B513460A4604461946FFF722
:1002D000F0FF204610BD421C10F8011B0029FBD185
:1002E000801A704710B5002200E0521C835C8C5CC1
:1002F000A34201D1002BF8D1D8B2E1B2401A10BD0F
:10030000034611F8012B00F8012B002AF9D11846F9
:1003100070472DE9FE4F804681EA0300C00F0C466E
:10032000009021F0004123F00045B8EB0200A94104
:1003300005D24046214690461C460B46024623F015
:100340000040104347D0270DC7F30A00C3F30A51FA
:100350000290401A019040286BDAC3F3130040F476
:10036000801B0098924620B10023D2EB030A63EB76
:100370000B0B01985946C0F14002504600F002FABA
:1003800006460D4650465946019A00F01AFA10EBFF
:1003900008006141002487EA115284EAE7731A4396
:1003A00040D0009A62B3019A012A4FEA075215DC45
:1003B000001B61EB02014FF0004202EA0752CDE957
:1003C0000042001C41F5801132462B4600F051FAE4
:1003D00003B0BDE8F08F40462146F9E7001B61EB12
:1003E0000201001C41F5801300185B412018A2F5A2
:1003F000001747EB030140EAD570B6196D4111E0D3
:100400006D084FEA360645EAC0754FEA0752001BF1
:1004100061EB0201001C41F5801149084FEA3000F0
:100420000019514132462B4603B0BDE8F04F00F0B1
:1004300011BA0098012240000023D0EB020263EBC6
:10044000E073009821464FEAE074B8EB000061EBDE
:100450000401E9E783F000435BE781F0004158E7DE
:100460002DE9FE4F81EA030404F0004421F000412D
:1004700000944FF0000B23F0004350EA01045ED0DB
:1004800052EA03045BD0C3F30A54C1F30A552C4467
:10049000A4F2F3340194A0FB0254C1F3130141F41C
:1004A0008011C3F3130343F4801301FB024400FBE8
:1004B000034E840A970A44EA815447EA8357A4FB0F
:1004C000076802958D0A05FB07854FEA932C04FB0C
:1004D0000C542705029D4FEA065847EA1637B5EB3C
:1004E00008056EEB070C870E920E47EA811742EA69
:1004F0008312A7FB0201B6EB0B0164EB00042B0D8A
:1005000043EA0C335E1844EB1C50DA465146E7FBD5
:100510000201C5F313044FEA0B3343EA14534FEAC5
:100520000432019C43EA0603A4F10C040294009CEB
:10053000CDE900B400F09DF903B0BDE8F08F0020D4
:100540000146F9E72DE9F04D81EA030404F0004B80
:1005500021F0004514464FF0000A23F0004150EA14
:10056000050220D054EA01021DD0C5F30A57024605
:10057000C5F31303C1F31300C1F30A5640F4801509
:1005800043F48013A7EB0608101BD64608F2FD388B
:1005900073EB050002D308F1010801E092185B41FA
:1005A000B8F1000F03DA00200146BDE8F08D00200D
:1005B0004FF48011064684460EE0171B73EB0507C7
:1005C00005D3121B63EB050306434CEA010C4908F3
:1005D0004FEA300092185B4150EA0107EDD152EA30
:1005E000030012D082EA040083EA0501084305D023
:1005F000101BAB4106D20122002306E000224FF07F
:10060000004302E06FF0010253101AEB06004CEBBE
:10061000085110EB0A0041EB0B01BDE8F04D00F072
:1006200019B90EB5C10F80EAE0700844CA0700216D
:1006300040F233438DE80E000A460B4600F019F9EC
:1006400003B000BD0EB540F2334102910021CDE967
:1006500000110A460B4600F00CF903B000BD3EB590
:10066000CA17CB0F002450405140C0186141DA072F
:1006700040F233430094CDE901232246234600F0A3
:10068000F8F803B030BD70B5C1F30A5201F000456F
:100690000024C1F3130140F2FF3341F480119A4268
:1006A00001DA002070BD40F233439A42A2F2334295
:1006B00003DC524200F075F800E090402C43F1D08A
:1006C000404270BD00F0004230F000400AD0C10D41
:1006D00001F56071C0F3160042EA0151C2084007FB
:1006E00011437047002001467047000030B5041EDA
:1006F00071F1000404DB4FF00044404264EB01015F
:10070000141E73F1000405DB1C464FF000435242F7
:1007100063EB04038B4208BF824230BD30B5041E38
:1007200071F1000404DB4FF00044404264EB01012E
:10073000141E73F1000405DB1C464FF000435242C7
:1007400063EB0403994208BF904230BD01F00043BF
:1007500030B421F0004150EA010206D00A0DA2F5A2
:100760006072C1F31301002A02DC30BC0020704724
:10077000440F44EAC104C100E01830BC00EBC25091
:1007800000F031B8202A04DB203A00FA02F1002000
:1007900070479140C2F1200320FA03F319439040BF
:1007A0007047202A04DB203A21FA02F0002170472A
:1007B00021FA02F3D040C2F12002914008431946C9
:1007C0007047202A06DBCB17203A41FA02F043EAB1
:1007D000E07306E041FA02F3D040C2F120029140FA
:1007E0000843194670470029A8BF7047401C4900BC
:1007F00008BF20F00100704710B4B0FA80FC00FA86
:100800000CF050EA010404BF10BC704749B1CCF1B0
:10081000200421FA04F411FA0CF118BF012121433C
:100820000843A3EB0C01CB1D4FEA00614FEA1020F7
:1008300042BF002010BC704700EBC3501044002999
:10084000A4BF10BC7047401C490008BF20F0010045
:1008500010BC704710B5141E73F1000408DA401C78
:1008600041F1000192185B411A4301D120F00100CF
:1008700010BD2DE9F04D92469B4611B1B1FA81F2BF
:1008800002E0B0FA80F220329046FFF77BFF044688
:100890000F4640EA0A0041EA0B0153465A46084314
:1008A00013D0114653EA010019D0C8F14002504656
:1008B000FFF777FF05460E46504659464246FFF77A
:1008C00061FF084305D0012004E020463946BDE819
:1008D000F08D0020054346EAE0762C4337430A9822
:1008E0006305E40AA0EB08000022FD0A44EA47542D
:1008F0000A3002D500200146E9E7010510196941D7
:10090000DDE9084500196941BDE8F04DA2E70000A6
:100910002DE9F041054621F000400C46284309D05E
:10092000C4F30A5040F23341884205DD284621468F
:10093000BDE8F0812846FBE740F2FE31884210DC3A
:100940000CDB4FEA043040EA155050EA053105D07F
:10095000104804F0004101430020E9E7002001466F
:10096000E6E7A0F233404642C6F14002284621465F
:10097000FFF708FF07468846284621463246FFF71C
:1009800010FF43463A46FFF765FF3246BDE8F041A7
:10099000FFF7F8BE0000F03F2DE9F04DC1F30A5417
:1009A00001F0004A05460027C1F3130140F2FF3071
:1009B00041F4801684420EDAB4F57F7F00DC841E99
:1009C000A4F2F33228463146FFF7DCFE02460B461E
:1009D0000020014614E040F23340844213DCA4F2CC
:1009E000F33228463146FFF7CDFE80468B46A4F20F
:1009F0003344624228463146FFF7D3FE42465B4607
:100A0000FFF728FF05E0A4F2334228463146FFF7FE
:100A1000B9FE57EA0A0704D00023D0EB030063EBCA
:100A20000101BDE8F08D0000064C074D06E0E068CE
:100A300040F0010394E8070098471034AC42F6D325
:100A4000FFF77AFBE87003080871030870B58C188B
:100A500010F8015B15F0070301D110F8013B2A11D2
:100A600006D110F8012B03E010F8016B01F8016BBF
:100A70005B1EF9D12B0705D40023521E0DD401F8BB
:100A8000013BFAE710F8013BCB1A921C03E013F884
:100A9000015B01F8015B521EF9D5A142D8D30020B9
:100AA00070BD00BFFEE7000008B502220121174813
:100AB00005F055FC40B302220121144805F047FC23
:100AC0000121124805F021FB0221104805F01DFB11
:100AD00001210F4826F0A2FF00210D4826F09EFFBD
:100AE0000020009069460B4800682CF07BFD00BF99
:100AF000009838B14FF0805007490860BFF34F8F1E
:100B0000BFF36F8F00BF00BF08BD000000000240B0
:100B1000003001405C02002004ED00E000B587B029
:100B20004FF4A06025F0B6FC0121234805F01FFB1F
:100B3000684605F073FC00208DF81A001F480090ED
:100B40001F4802900120049000208DF81800012019
:100B50008DF819000020019003904FF4405005904B
:100B60006A460121144805F042FB02220121124885
:100B700005F0D4FB0221104805F0F9FA684605F0AB
:100B80004DFC01208DF81A000C4800900D48029091
:100B90000120049000208DF818008DF819000190B4
:100BA00003904FF4405005906A460221024805F038
:100BB0001EFB07B000BD0000000002400C300140E9
:100BC00079020020780200207047000008B500205C
:100BD000009001200CF076FC38B101200CF06CFC88
:100BE0006946084800682CF0FDFC00BF009838B149
:100BF0004FF0805004490860BFF34F8FBFF36F8FF1
:100C000000BF08BD5802002004ED00E010B501222D
:100C1000024902200FF032FB10BD00007C020020D0
:100C200010B50222024904200FF028FB10BD00007D
:100C30008002002010B50322024908200FF01EFB9D
:100C400010BD00008402002010B5042202491020CB
:100C50000FF014FB10BD00008802002010B500F05A
:100C60009BF800F001F810BD10B540F2026025F0CD
:100C700011FC4FF4C06025F00DFC01230322482134
:100C800007480EF0F3FD002108460EF0A3FD0122F7
:100C9000002110460CF0B2FB01200CF00DFC10BD41
:100CA0000008014070B504460D460121184805F0C2
:100CB0002CFA0221164805F028FA012211461448A0
:100CC00005F08DFA01220221114805F088FA22462A
:100CD00001210F4805F084FB2A4601210C4805F04C
:100CE000ABFB2A4602210A4805F0A6FB0121094870
:100CF00026F09FFE0021074826F09BFE01210448B4
:100D000005F01CFA0221024805F018FA70BD000037
:100D1000000002400030014000BFFEE710B5002097
:100D200002461B4B19684FF6FF031940194B0B4342
:100D300043EA0221164B196000BF08210C2000F085
:100D400071FA0C2000F051FA0621084600F06AFA08
:100D5000062000F04AFA0A21072000F063FA072073
:100D600000F043FA0A21082000F05CFA082000F0A5
:100D70003CFA0A21092000F055FA092000F035FA62
:100D80000A21084600F04EFA0A2000F02EFA10BDA3
:100D90000CED00E00000FA0510B540F2026025F00D
:100DA00079FB4FF4C06025F075FB1E230322482118
:100DB0001E480EF05BFD012100200EF00BFD02210C
:100DC00000200EF007FD032100200EF003FD04219A
:100DD00000200EF0FFFC0122002102200CF00EFB8F
:100DE0000122002104200CF009FB0122002108202F
:100DF0000CF004FB0122002110200CF0FFFA02206D
:100E00000CF05AFB04200CF057FB08200CF054FBAC
:100E100010200CF051FB00200549086005490860CE
:100E2000054908600549086010BD00000008014040
:100E30007C02002080020020840200208802002022
:100E40002DE9F04107460C4615461E462A2000F0C3
:100E500079F9384600F066F9284600F063F92B204E
:100E600000F070F904F1500188B200F05BF906F16E
:100E7000500188B200F056F92C2000F063F9BDE86B
:100E8000F081000010B540F2046025F003FB40F251
:100E9000046025F0FFFA40F2046025F0FBFA40F20E
:100EA000046025F0F7FA40F2036025F0F3FA40F20F
:100EB000036025F0EFFA40F2036025F0EBFA40F210
:100EC000036025F0E7FA4FF40073032210212A484B
:100ED0000EF0CCFC4FF480730322102126480EF054
:100EE000C5FC40230322102123480EF0BFFC8023C1
:100EF0000322102120480EF0B9FC4FF48043032256
:100F000010211E480EF0B2FC4FF4004303221021C2
:100F10001A480EF0ABFC4FF400530322102117487F
:100F20000EF0A4FC4FF480530322482114480EF025
:100F30009DFC4FF4007110480EF04AFC4FF4807194
:100F40000D480EF045FC40210B480EF041FC80217D
:100F500009480EF03DFC4FF4804108480EF038FC83
:100F60004FF4004105480EF033FC4FF400510348A4
:100F70000EF02EFC10BD000000100140000C0140DE
:100F80000008014010B5FFF77DFF402163480EF0D7
:100F90001DFC642005F05EF8402160480EF018FC4E
:100FA000642005F057F84FF400415D480EF010FC46
:100FB000642005F04FF8112000F0C4F8782005F007
:100FC00049F8362000F0BEF8C02000F0B4F83A200E
:100FD00000F0B8F8052000F0AEF8B22000F0B2F84A
:100FE0000C2000F0A8F80C2000F0A5F8002000F07C
:100FF000A2F8332000F09FF8332000F09CF8B720CF
:1010000000F0A0F8352000F096F8BB2000F09AF828
:10101000322000F090F8C22000F094F8012000F097
:101020008AF8C32000F08EF8152000F084F8C42060
:1010300000F088F8202000F07EF8C62000F082F84A
:101040000F2000F078F8D02000F07CF8A42000F009
:1010500072F8A12000F06FF8E02000F073F8D020C3
:1010600000F069F8082000F066F80E2000F063F840
:10107000092000F060F8092000F05DF8052000F07C
:101080005AF8312000F057F8332000F054F8482087
:1010900000F051F8172000F04EF8142000F04BF843
:1010A000152000F048F8312000F045F8342000F019
:1010B00042F8E12000F046F8D02000F03CF808208B
:1010C00000F039F80E2000F036F8092000F033F86F
:1010D000092000F030F8152000F02DF8312000F044
:1010E0002AF8332000F027F8482000F024F81720D1
:1010F00000F021F8142000F01EF8152000F01BF875
:10110000312000F018F8342000F015F8212000F00C
:1011100019F8292000F016F810BD00000010014059
:10112000000C014010B50446201200F01BF8E0B29C
:1011300000F018F810BD10B50446204600F012F873
:1011400010BD000010B50446802105480EF03EFB9E
:10115000204600F007F8802101480EF039FB10BD51
:101160000010014070B504464FF4804114480EF061
:101170002DFB00251BE04FF4007112480EF026FBFA
:1011800004F0800028B14FF480710E480EF020FB6F
:1011900004E04FF480710B480EF018FB4FF400711F
:1011A00008480EF015FB6006040E681CC5B2082D39
:1011B000E1DB4FF4804102480EF00AFB70BD0000F5
:1011C000000C01400010014010B540F2026025F013
:1011D00061F901230322102101480EF047FB10BDE5
:1011E0000008014000BFFEE7704700F01F02012128
:1011F00091404209920002F1E022C2F800117047CA
:101200000146002906DA054801F00F02121F805C32
:10121000001170470248405C0011FAE718ED00E049
:1012200000E400E010B5002807DA0A07140E054AAA
:1012300000F00F031B1FD45403E00A07130E024AE9
:10124000135410BD18ED00E000E400E01CB52BF0D5
:1012500043FA2BF091F92AF099FF08A000F0FEF86C
:101260000B48012100236022CDE9001009A10C48A0
:101270002CF012FC2BF02AFC1CBD0000524354360B
:10128000205255462054455354494E4721000000F2
:101290005002002053544152545F5441534B0000BC
:1012A000D97B020800B587B000F020F840F20C604E
:1012B00025F0F0F8684626F0E5FB4FF482700090C8
:1012C00000200190029005904FF4007003902020C0
:1012D0000690002004906946034826F0BAFB0248B5
:1012E00026F0B2FB07B000BD0030014010B540F25F
:1012F000026025F0CFF8A023032218210A480EF03F
:10130000B5FA40230322042107480EF0AFFA102358
:101310000322194604480EF0A9FA00BF1021024822
:101320000EF056FA00BF10BD0008014010B52BF0BA
:1013300039FF04F099FE10BD08B52648006840F456
:101340007000244908602448006840F001002249E8
:10135000086000BF2048006800F002000028F9D0B3
:1013600000BF1D48406840F080001B4948600020D5
:10137000009002E00098401C009000985028F9D39B
:101380001548406840F090001349486000200090E4
:1013900002E00098401C009000985028F9D300BF4C
:1013A0000D48406820F003000B494860084600687B
:1013B0000A490840084908604FF41F008860084641
:1013C000006820F48020086000204860C86227F090
:1013D000FBFF08BD88ED00E000100240FFFFF6FEB5
:1013E00010B540F2026025F055F840F20E6025F08D
:1013F00051F84FF400730322182115480EF036FA05
:101400004FF480630322042111480EF02FFA114893
:101410002AF0EAFC00210F482AF066FD00210D4861
:101420002AF050FD00210B482AF03AFD4FF4E1313B
:1014300008482AF08DFC042106482AF039FD0821CD
:1014400004482AF047FD03482AF016FD10BD0000AD
:10145000000801400038014000BFFEE70FB4054B13
:1014600010B503A9044A029802F0FEF910BC5DF819
:1014700014FB000001E8000890050020410008026C
:1014800018BF04200A0E18BF40F001004FF07F4241
:1014900032EA010108BF40F00200012808BF052020
:1014A00070472DED020B019820F0004001909DED5A
:1014B000000B02B0704700002DE9F0412DED020B4A
:1014C0009FED3D0B2DED028B9FED3D8BDDE9025431
:1014D000C4F30A50A0F2FF36142E37DA002E18DAC1
:1014E00053EC102B9DED020B51EC100BFEF711FF8E
:1014F00053EC182BFFF712F957D2002CA4BF00248D
:10150000254652DA24F00040284318BF2E4C4CD018
:101510001AE02E4820FA06F704EA070028431FD0F5
:1015200053EC102B9DED020B51EC100BFEF7F1FE6E
:1015300053EC182BFFF7F2F837D2002C03DA4FF4F4
:101540008010F0400444BC4300252EE0332E07DC1D
:10155000A6F114004FF0FF3121FA00F73D4206D109
:101560009DED020BBDEC028B02B0BDE8F08153ECA7
:10157000102B9DED020B51EC100BFEF76EFF53ECA0
:10158000182BFFF7CBF810D2002C0DDA142E08BF61
:10159000641C09D0C6F13400012101FA00F028448E
:1015A000A84238BF641C0546BD43CDE902549DEDF9
:1015B000020BD7E7000000009C7500883CE4377EF2
:1015C00000000000000000000000F0BFFFFF0F005F
:1015D00010B52DED020B2DED088B9DED080B51EC98
:1015E000100BFFF795F941EC180B9DED080B53EC30
:1015F000182B51EC100BFEF72DFF41EC190B09983D
:101600009FED2D0B10F0004F53EC102B51EC190BEC
:101610009FED25AB9FED26BB0DD0FFF767F80DD9E9
:1016200053EC1B2B51EC190BFFF778F81BD213E08E
:1016300041EC180B17E0FFF759F806D253EC1A2BC0
:1016400051EC180BFEF706FFF2E753EC1B2B51ECA5
:10165000190BFFF763F806D853EC1A2B51EC180B53
:10166000FEF757FEE4E79FED160B51EC180B53EC19
:10167000102BFFF753F808D351EC180B9FED120B0A
:1016800053EC102BFFF732F802D2012000F0B6F92C
:1016900051EC180BBDEC088B02B0BDE81040FFF711
:1016A0007BB9000000000000000000000000F03FD7
:1016B000000000000000E03F000000000000E0BF6C
:1016C000000000000000E043000000000000E0C354
:1016D00000B510EE101A2DED028B81B0524A68460B
:1016E000B2EB410F2ED94FF0E640B0EB410F94BF63
:1016F00000204FF0FF3000900098B0EE408A0028A4
:101700006ADB10F0010F4BD068EE080A9FED471A14
:101710009FED470A00EE810A9FED461A10F0020F76
:1017200000EE801AB7EE000A00EE810A02BF01B097
:10173000BDEC028B00BD00BF01B0B1EE400ABDECB4
:10174000028B00BD3C4B21F00042934241D911F085
:10175000004FDFED3A0A20EE201ADFED390A19BFFB
:1017600031EE601A71EE200A31EE201A71EE600A35
:10177000BDEEE01A11EE100A9FED321A00F00300E0
:1017800000EEC10A9FED301A009000EEC10A9FEDF5
:101790002F1A00EEC10A9FED2E1A00EEC10AABE728
:1017A00028EE080A9FED2B1ADFED2B0A10F0020F2E
:1017B00040EE410A9FED291A00EE201A61EE000A60
:1017C000B0EE480A08EE200AB6D101B0BDEC028B9B
:1017D00000BD00F059F88FE718EE100A4000B0F194
:1017E0007F4F0DD218EE100AFFF748FE042808BFFD
:1017F00000F042F8B0EE480A01B0BDEC028B00BD2B
:1018000009D1012000F0FAF801B0BDEC028B5DF8BF
:1018100004EB00F029B801B0B0EE480ABDEC028B31
:101820005DF804EB00F01CB8B61F927EB93AB2BA6C
:10183000CA9F2A3DDDFFFFBE490E494683F9223F7C
:101840000000004B0000C93F00A0FD390020A2337A
:101850001A61342C336D4C39DA82083CA0AA2ABEB6
:1018600030EE000A70470000DFED020A80EEA00AA9
:1018700070470000000000009FED020A20EE000A01
:1018800070470000000000102DE9F0014FF07F428A
:10189000B2EB410F9FBF4FF0FF310160BDE8F00197
:1018A00070474FF0004242EA0123C1F3C752783A31
:1018B000551112F01F0C434CCCF120067C44C1F3AF
:1018C000C752A2F178024FEA621204EB820254F886
:1018D000254008BFD2E9015612D0556804FA0CF42D
:1018E00025FA06F73C43976805FA0CF527FA06F83F
:1018F000D26807FA0CFCF24045EA08054CEA0206F9
:10190000A4FB034CA5FB0352A6FB03631D449D42AD
:1019100034BF012600261319334416B1934202D96D
:1019200003E0934201D2012200E00022624402F16E
:10193000200C9206DC0C42EA443200EE102A5B03D3
:10194000DFED210AF8EEC01A00EE103A4FEA9C1CB7
:1019500011F0004FB8EE400AC0F800C020EE201A87
:1019600000EE105ADFED190AB8EE400A20EE200A08
:1019700071EE810A70EE800A10EE902A02F5006284
:101980006FF30B0200EE902A70EEE11A31EEC11AED
:10199000DFED101A30EE411A9FED0D0A20EE800A9D
:1019A00001EE210A9FED0C1A00EE810A04BFBDE88A
:1019B000F0017047CCF180510160BDE8F001B1EE5B
:1019C000400A70473C530300000000360000802CA2
:1019D00022AAFD29DB0FC92F0000C92F02E008C889
:1019E000121F08C1002AFAD170477047002001E099
:1019F00001C1121F002AFBD1704700000149086095
:101A0000704700009405002070B50446002508E0EA
:101A10002168481C20600878303805EB850100EB10
:101A200041052168087800F004F80028F0D1284624
:101A300070BD0146302903DB392901DC01207047E4
:101A40000020FCE710B54021074801F0FEF8002215
:101A50000421064822F0E0F80549086002F032FD52
:101A600000200449087010BD1C4100209145000869
:101A7000680400206404002030B50346B1F900403A
:101A8000B2F90050AC4202DDB1F9004001E0B2F918
:101A900000401C80B1F90240B2F90250AC4202DDB4
:101AA000B1F9024001E0B2F902405C80B1F90440B2
:101AB000B2F90450AC4202DAB1F9044001E0B2F9E3
:101AC00004409C80B1F90640B2F90650AC4202DAFB
:101AD000B1F9064001E0B2F90640DC800120B3F91B
:101AE0000040B3F90450AC4205DCB3F90240B3F94D
:101AF0000650AC4200DD002030BDF8B504460D466E
:101B000016460027B4F90000B5F90010884212DB30
:101B1000B4F90200B5F9021088420CDBB4F90400F4
:101B2000B5F90410884206DCB4F90600B5F90610D0
:101B3000884200DC01270FB90020F8BD0EB9012052
:101B4000FBE72088ADF800006088ADF8020032465F
:101B50006946284600F0A7F808B90020EDE7A088FC
:101B6000ADF800006088ADF80200324669462846AC
:101B700000F099F808B90020DFE72088ADF80000F0
:101B8000E088ADF8020032466946284600F08BF83E
:101B900008B90020D1E7A088ADF80000E088ADF8D2
:101BA000020032466946284600F07DF808B9002058
:101BB000C3E70120C1E70246B2F90000B1F90430E1
:101BC000984213DCB2F90400B1F9003098420DDB01
:101BD000B2F90200B1F90630984207DCB2F906000A
:101BE000B1F90230984201DB012070470020FCE788
:101BF000F8B504460D461646B4F90400B5F90010D0
:101C0000884211DBB4F90600B5F9021088420BDBFB
:101C1000B4F90000B5F90410884205DCB4F90200FB
:101C2000B5F90610884201DD0120F8BD0EB900208B
:101C3000FBE72088ADF800006088ADF8020032466E
:101C40006946284600F02FF808B10020EDE7A0888B
:101C5000ADF800006088ADF80200324669462846BB
:101C600000F021F808B10020DFE72088ADF800007F
:101C7000E088ADF8020032466946284600F013F8C5
:101C800008B10020D1E7A088ADF80000E088ADF8E9
:101C9000020032466946284600F005F808B10020E7
:101CA000C3E70120C1E72DE9FC5F05460E46144657
:101CB0004FF0000AB6F90000B5F90010884213DBB6
:101CC000B6F90000B5F9041088420DDCB6F902003F
:101CD000B5F90210884207DBB6F90200B5F9061023
:101CE000884201DC4FF0010ABAF1000F02D1002056
:101CF000BDE8FC9F002C01DC0120F9E728460FF02D
:101D000092FD834600EBDB70471028460FF018FD6C
:101D1000834600EBDB704FEA6008474501DA38463E
:101D200000E0404681464C4500DD4C462888ADF831
:101D300000002888204400B2ADF804006888ADF89F
:101D400002006888204400B2ADF806000022314647
:101D50006846FFF7A8FF80B1BDF80400204400B238
:101D6000ADF80400BDF80600204400B2ADF806004E
:101D7000314668461EF088FEBAE7E888001B00B2CC
:101D8000ADF80200E888ADF806000022314668464A
:101D9000FFF789FF80B1BDF80400204400B2ADF820
:101DA0000400BDF80200001B00B2ADF8020031468D
:101DB00068461EF069FE9BE7A888001B00B2ADF8DC
:101DC0000000A888ADF80400002231466846FFF7FD
:101DD0006AFF80B1BDF80000001B00B2ADF8000042
:101DE000BDF80200001B00B2ADF8020031466846A3
:101DF0001EF04AFE7CE76888ADF80200688820443F
:101E000000B2ADF80600002231466846FFF74BFFEE
:101E100080B1BDF80000001B00B2ADF80000BDF8B5
:101E20000600204400B2ADF80600314668461EF0B8
:101E30002BFE5DE701205BE710B5B1F90030B2F988
:101E40000040A34202DAB1F9003001E0B2F90030FB
:101E50000380B1F90230B2F90240A34202DAB1F9CB
:101E6000023001E0B2F902304380B1F90430B2F936
:101E70000440A34202DDB1F9043001E0B2F90430BC
:101E80008380B1F90630B2F90640A34202DDB1F910
:101E9000063001E0B2F90630C38010BD2DE9FF41E4
:101EA000044621F0B4FE05460020039034B14749B2
:101EB000E0680860204621F0C7FF03E012F0B6FAA0
:101EC000424908604149096808691EF03BFD3F48E6
:101ED0000068406920B13D49096848691EF032FD3B
:101EE0003A490968C8691EF02DFD38490968086A31
:101EF0001EF028FD35480068006940B900203349CC
:101F00000968A1F8500100BF00BFBDE8FF811FF0C4
:101F10009DF81EF0E3FF2D480068B0F8500100283E
:101F20004BD02A4800680068007CC0F34000E8B14C
:101F30002648006812F0F8FA401E06B223480068EE
:101F400012F08CFA401E07B23B460022114601A84F
:101F500000960FF0A6FC01A81C4909680968896B66
:101F600048601A48006805F0C1FA00BF4FF480715C
:101F700016480068303019F048FC202113480068EA
:101F800000F5987019F041FC002010490968A1F88B
:101F90005001284621F02EFE03900C48006800688E
:101FA000406A50B109490968086808490968096820
:101FB0004B6A07490A680399984719F05DF900F0E0
:101FC0003FF800F007F800BF9FE700004C03002037
:101FD0004803002010B5002416E0C4EBC4000C49EF
:101FE00051F8200030B1C4EBC401094A52F8210075
:101FF00019F0F4F9C4EBC401054A02EB81001C217D
:1020000019F003FC601CC4B2042CE6DB10BD000018
:10201000F84100200146094A10680BE042688A42F4
:1020200002D002688A4204D1027E22F00102521CD0
:10203000027640690028F1D170470000200300209B
:102040007047000010B50421014800F0FEFD10BDEE
:102050001041002010B51C21014800F0F6FD10BD14
:10206000284100202DE9FF4F8BB004469A46199D68
:10207000BAF1000F11D11898B0F5807F0DD1002072
:10208000208060800C98401E00B2A0800D98401EF9
:1020900000B2E0800FB0BDE8F08FB5F9000040421B
:1020A000189948430121C1EB202000B22080B5F9E6
:1020B00002004042189948430121C1EB202000B2A0
:1020C0006080B5F900100C98401A18994843022115
:1020D00001EB202000B2A080B5F902100D98401A43
:1020E00018994843022101EB202000B2E080BAF1A8
:1020F000000F14D120882988084400B2208060880D
:102100006988084400B26080A0882988084400B229
:10211000A080E0886988084400B2E080BAE70A201D
:102120009AFBF0F00A900A98401C09900A9800EB7C
:102130008000AAEB400B0A9800B222F003F8089046
:10214000099800B221F0FEFF07900A985A3000B2B9
:1021500021F0F8FF069009985A3000B221F0F2FF02
:102160000590CBF10A0108984143079800FB0B103A
:102170000A2190FBF1F6CBF10A010698414305983C
:1021800000FB0B100A2190FBF1F776117F11B4F9D7
:102190000080B4F9029007FB08F006FB19002988BB
:1021A00001EBA02000B2ADF8100006FB08F007FB21
:1021B0000900698801EBA02000B2ADF81200B4F963
:1021C0000480B4F9029007FB08F006FB1900298887
:1021D00001EBA02000B2ADF80C0006FB08F007FBF5
:1021E0000900698801EBA02000B2ADF80E00B4F937
:1021F0000080B4F9069007FB08F006FB1900298857
:1022000001EBA02000B2ADF8080006FB08F007FBC8
:102210000900698801EBA02000B2ADF80A00B4F90A
:102220000480B4F9069007FB08F006FB1900298822
:1022300001EBA02000B2ADF8040006FB08F007FB9C
:102240000900698801EBA02000B2ADF80600BDF9D5
:102250000800BDF91010884202DABDF9080001E05B
:10226000BDF91000BDF90410BDF90C20914202DA4D
:10227000BDF9041001E0BDF90C1088420BDABDF97C
:102280000800BDF91010884202DABDF908000DE01F
:10229000BDF910000AE0BDF90400BDF90C10884238
:1022A00002DABDF9040001E0BDF90C002080BDF99F
:1022B0000800BDF91010884202DDBDF9080001E0F8
:1022C000BDF91000BDF90410BDF90C20914202DDEA
:1022D000BDF9041001E0BDF90C1088420BDDBDF919
:1022E0000800BDF91010884202DDBDF908000DE0BC
:1022F000BDF910000AE0BDF90400BDF90C108842D8
:1023000002DDBDF9040001E0BDF90C00A080BDF9BB
:102310000A00BDF91210884202DABDF90A0001E094
:10232000BDF91200BDF90610BDF90E20914202DA86
:10233000BDF9061001E0BDF90E1088420BDABDF9B7
:102340000A00BDF91210884202DABDF90A000DE058
:10235000BDF912000AE0BDF90600BDF90E10884271
:1023600002DABDF9060001E0BDF90E006080BDF99A
:102370000A00BDF91210884202DDBDF90A0001E031
:10238000BDF91200BDF90610BDF90E20914202DD23
:10239000BDF9061001E0BDF90E1088420BDDBDF954
:1023A0000A00BDF91210884202DDBDF90A000DE0F5
:1023B000BDF912000AE0BDF90600BDF90E10884211
:1023C00002DDBDF9060001E0BDF90E00E08000BFAE
:1023D00060E62DE9F74F86B0044620680590B4F911
:1023E00008100798A0EB0108B4F90A100898A0EBB0
:1023F0000109E089B0F5807F13D1206B00FB08F064
:10240000E16A01FB1901606A00EBA10BE06A00FBC5
:1024100008F0216B01FB0901A06A00EBA100049008
:102420002FE0A08980B9A06B00FB08F04FEA60188C
:10243000A06B00FB09F04FEA6019606A00EB080B23
:10244000A06A484404901CE0A06B00FB08F04FEA2F
:102450006018A06B00FB09F04FEA6019206B00FBCD
:1024600008F0E16A01FB1901606A00EBA12BE06A48
:1024700000FB08F0216B01FB0901A06A00EBA12021
:1024800004904FEA2B2604980712B4F90400B042D6
:1024900003DC002009B0BDE8F08F002E01DA002037
:1024A000F8E7B4F90600B84201DC0020F2E7002F9B
:1024B00001DA0020EEE73420005DC0F3800050B365
:1024C0003420005DC0F3400078B90225B4F904005F
:1024D0007843684306FB050A059800EB0A012A4683
:1024E00004F1140019F03FF92CE00325B4F90400BD
:1024F0007843684306FB050A6A1E059800EB0A014B
:1025000004F1140019F02FF90AEB0500401E05999B
:10251000095CA17516E04FF0000A0025208A0346E9
:102520003AB231B2019004F1180016F001FB0290AA
:10253000BDF80800A0823AB231B204F1180016F0DA
:1025400057FAA0753420005D00F00100B0B14FF4DF
:102550007F40002100F47C4241EA5211C0F3C402E2
:1025600011430191BDF8042011460291A08ABDF8E3
:102570000810884201D100208CE700BFE07C08B938
:10258000012087E70FFA8BF1A187049801B2E18758
:1025900031B24020015339B242200153C4F844A063
:1025A00084F84850204600F003F80390039871E740
:1025B0002DE9F04F8DB00446D4F8009094F83C001B
:1025C0000C9094F83E000B900C9870280BDA4FF0AA
:1025D000FF35B4F940002844002800DA00250C98A3
:1025E0008030C7B213E00C9890280EDD0125B4F9B5
:1025F00040002844B4F90410884200DB00250C9800
:10260000C0F1FF008030C7B201E00025FF270B9822
:1026100070280CDA4FF0FF36B4F94200304400283D
:1026200000DA00260B98803000F0FF0815E00B98C8
:1026300090280FDD0126B4F942003044B4F90610A9
:10264000884200DB00260B98C0F1FF00803000F0CC
:10265000FF0802E000264FF0FF08A08A0A90A07D44
:10266000069000200590049003903420005DC0F394
:10267000800000285BD094F84800626C00FB0520C5
:1026800000EB0901022209A819F06DF8A28894F85C
:10269000480012FB00F2606C02FB060000EB09012F
:1026A000022208A819F05FF8A28894F8480012FBEB
:1026B00000F2606C02FB060294F8480000FB052063
:1026C00000EB0901022207A819F04DF83420005D43
:1026D000C0F3400000287ED094F84800616C00FBF5
:1026E00005110844401E19F800000590A18894F8CF
:1026F000480011FB00F1606C01FB060194F84800F2
:102700000844401E19F800000490A18894F848007D
:1027100011FB00F1606C01FB060194F8480000FB1E
:1027200005110844401E19F80000039053E0208A68
:102730000090B4F942204020005B284401B204F12B
:102740001800009B16F0F4F90990208A00904220AE
:10275000005B304402B2B4F9401004F11800009B51
:1027600016F0E6F90890208A00904220005B304481
:1027700002B24020005B284401B204F11800009B23
:1027800016F0D6F907903420005DC0F3400010B376
:10279000B4F942204020005B284401B204F1180043
:1027A00016F026F905904220005B304402B2B4F9DD
:1027B000401004F1180016F01BF904904220005B51
:1027C000304402B24020005B284401B204F11800FA
:1027D00016F00EF90390BA46BB463420005DC0F3F4
:1027E0004000E0B306987843C7F1FF0C059B03FB5C
:1027F0000C00C0F3072104987843C7F1FF0C039B3A
:1028000003FB0C00C0F3072201FB08F0C8F1FF0333
:1028100002FB0300030AA375022905DC022A03DC7C
:1028200000200DB0BDE8F08F022901DC4FF0000858
:10283000022A01DC4FF0FF080698022801DC4FF065
:10284000000A0598022801DC4FF0FF0A04980228CC
:1028500001DC4FF0000B0398022803DC00E002E0EB
:102860004FF0FF0B03E0BA46BB46FF21A175BAF15A
:10287000000F02D1099802900BE0BAF1FF0F02D1CC
:102880000A98029005E05246DDE9091011F08AF835
:102890000290BBF1000F02D1079801900BE0BBF151
:1028A000FF0F02D10898019005E05A46DDE90710B4
:1028B00011F078F80190B8F1000F03D1BDF80400D1
:1028C000A0820FE0B8F1FF0F03D1BDF80800A0828D
:1028D00008E04246DDE9011011F064F80090BDF80F
:1028E0000000A08201209CE72DE9F05F0446B4F9C6
:1028F000080001026162B4F90A000102A162B4F9A0
:102900000C000A2190FBF1F56F1CB4F90C0005EBEB
:102910008501A0EB4106684200B221F013FC80461D
:10292000784200B221F00EFC8146C5F15A0000B297
:1029300021F008FC8246C7F15A0000B221F002FCE7
:102940008346C6F10A0000FB08F009FB06000A21D5
:1029500090FBF1F1E162C6F10A0000FB0AF00BFB0B
:1029600006000A2190FBF1F12163E06A4111E16266
:10297000206B41112163A07C16F0E9F93421095D37
:1029800060F3000134200155A07C16F0C3F9342116
:10299000095D60F3410134200155A07C042805D075
:1029A000A07C052802D0A07C062807D13420005D39
:1029B00020F00400001D3421085505E03420005D9E
:1029C00020F004013420015521682162A06920F023
:1029D000E000A061A17CA06961F30400A061A1886E
:1029E000A06961F39420A061E188A06961F35F5060
:1029F000A061E08900EBD071491001F5001191FB55
:102A0000F0F2A263FF21A175208AA082BDE8F09FA9
:102A10002DE9F743054616460024134C21F0F7F83C
:102A20008046334629462046019A16F0F9FD0746AE
:102A30005FB900BF00BF2C21204618F0E6FE4FF022
:102A40000040A0620020BDE8FE830020A062E06993
:102A500018B9404621F0CEF8E061E06908B90120DC
:102A6000E0612046EFE700004C41002010B5142142
:102A7000114800F0EAF816F085FD044600BF1CB9C5
:102A800000BF00BF00BFFEE700BF14B900BF00BF1A
:102A900010BD0A49204616F05DFE0949204616F091
:102AA0005BFE0849204616F059FE0749204616F0FD
:102AB0004FFE00BFECE7000034410020A18D01086B
:102AC0007592010891940108698D01082DE9FF4173
:102AD00004460F4614B911F0A9FC04460CB9BDE830
:102AE000FF811FB90020A4F85001F8E70020ADF8DD
:102AF0000800ADF80A00204611F0B0FC401E00B2FC
:102B0000ADF80C00204611F00FFD401E00B2ADF8EC
:102B10000E0002AA39466846FEF7AEFF064606B921
:102B2000DDE72068007CC0F3400060B102982063BC
:102B3000039860630120A4F85001606810B16068D8
:102B400021F08EF9CBE72068806918B120686946CA
:102B50008269904700250BE004F1300000EBC501CD
:102B600000226846FEF7C9FF00B1B8E7681C85B2CD
:102B7000B4F85001A842EFDCB4F85001202809DA7B
:102B8000B4F8502104F1300101EBC20069460EF0A7
:102B90005EFD0BE00020A4F85001B4F8502104F1D0
:102BA000300101EBC20002A90EF051FDB4F8500152
:102BB000401CA4F85001606810B1606821F050F921
:102BC00000BF8CE770B50546284600F013F80446B0
:102BD00000260CE02146284600F024F8064621464F
:102BE000284600F086F8204618F0F8FB3446002C02
:102BF000F0D170BD014609B9002070474868FCE774
:102C000070B5064600243046FFF7F4FF054605E0A0
:102C1000641C2946304600F005F80546002DF7D122
:102C2000204670BD02460B461068001D034418681C
:102C3000704702460B461068034418687047014607
:102C400009B9002070478868FCE700224260826072
:102C5000CA1C22F003010160704770B50446216868
:102C600001F1080018F0ECFA0546A5B1002229464A
:102C7000204622F015FB29462046626822F002FB1E
:102C8000606820B12A462046616822F009FB656031
:102C9000A06800B9A560284670BD70B504462168DB
:102CA00001F1080018F0CCFA0546A5B1002229462A
:102CB000204622F0E7FA29462046A26822F0F0FAE0
:102CC000A06820B12A462046A16822F0DBFAA56060
:102CD000606800B96560284670BD014609B90120E9
:102CE0007047486818B9886808B90120F8E70020DB
:102CF000F6E72DE9F04104460D460CB9BDE8F08138
:102D00002046FFF777FFA8420FD129462046FFF75C
:102D100089FF6060606810B90020A0602FE0002289
:102D20002046616822F0BCFA29E02046FFF787FFC1
:102D3000A8420FD129462046FFF77BFFA060A0687C
:102D400010B9002060601AE000222046A16822F03D
:102D500099FA14E029462046FFF76BFF06462946FC
:102D60002046FFF75FFF07463A463146204622F0ED
:102D700089FA32463946204622F092FA00BF00BF57
:102D8000BCE710B504462068806818B12068214669
:102D9000826890472068006828B120680068206039
:102DA0002046FFF7EEFF10BD0146886818B188681D
:102DB000B0F9160070470020FCE700002DE9F04F45
:102DC00093B005468B4691469A461C9E688C20F02F
:102DD0000400001D6884A5F82090328959462846D1
:102DE0001BF06CFB1290A5F820A0328959462846AA
:102DF0001BF064FB1190688C20F004006884DDE90E
:102E0000111088420CD1DDE91110884208D1BDF8BB
:102E10004800BDF84410884202D113B0BDE8F08FDD
:102E2000A5F820903289594628461BF047FB12909E
:102E3000A5F820A0594628460CF066FC1090318970
:102E4000109A1068129A1FF070FE3089602833D1F2
:102E500047F6FF711298884202D0119888422BD110
:102E600028461BF005FD0F9000EBD0704710284658
:102E70001BF0FEFC0F9000EBD0704FEA600847F6A5
:102E8000FF711298884208D1781C08F1010188422C
:102E900000DA01E008F10100129047F6FF71119885
:102EA000884208D1781C08F10101884200DA01E06B
:102EB00008F10100119000BF2448FFF7CEFE044640
:102EC00000BF1CB900BF00BF00BFFEE700BF04B9D0
:102ED000A3E71298E06011982061ACB325603089B7
:102EE000A080C4F808B068460DF068FD2146684629
:102EF0000DF017FE164968460DF0E3FD15480290E7
:102F000000BF154968460DF0EAFDFF220021684622
:102F10000DF0F7FD318868460DF0E9FD71886846CF
:102F20000DF0CAFDF068069000BF6846002190F8D9
:102F30003E2061F3000280F83E2000BF306905901A
:102F400068460DF005FE00BF00BF66E74041002067
:102F5000859F020831A2020861A1020810B5142160
:102F60000148FFF772FE10BD404100202DE9FE4FE1
:102F700004460F4690464FF0000900256BE1E068DB
:102F800000EBC5004068C0F3406000B162E1E16859
:102F900001EBC501496821F07F401DF0D0FC0646D9
:102FA00026EA070008B9012000E00020029026EA86
:102FB000080008B9012000E000200190DDE90101CE
:102FC000814272D0E06850F835A04FF0000B6A469D
:102FD00041F6100150461FF063FA10B14FF0010B9B
:102FE000A9E06A4641F6110150461FF059FA10B1A6
:102FF0004FF0010B9FE06A4641F6120150461FF068
:103000004FFA10B14FF0010B95E06A4641F61301FB
:1030100050461FF045FA10B14FF0010B8BE06A46A5
:1030200041F6150150461FF03BFA10B14FF0010B6D
:1030300081E06A4641F6140150461FF031FA10B1A2
:103040004FF0010B77E06A4641F2690150461FF0EC
:1030500027FA10B14FF0010B6DE06A4643F20C0104
:1030600050461FF01DFA10B14FF0010B63E06A46A5
:1030700043F20D0150461FF013FA10B14FF0010B4F
:1030800059E06A4641F2010150461FF009FA10B1B9
:103090004FF0010B4FE06A4641F2040150461FF029
:1030A000FFF918B14FF0010B45E0D2E06A4641F25A
:1030B000020150461FF0F4F910B14FF0010B3AE055
:1030C0006A4641F2030150461FF0EAF910B14FF091
:1030D000010B30E06A4641F2050150461FF0E0F96D
:1030E00010B14FF0010B26E06A4641F2060150464E
:1030F0001FF0D6F910B14FF0010B1CE06A4641F207
:10310000320150461FF0CCF910B14FF0010B12E024
:103110006A4643F60F0150461FF0C2F910B14FF056
:10312000010B08E06A4643F60E0150461FF0B8F95D
:1031300008B14FF0010BBBF1000F02D00320BDE836
:10314000FE8F6A4640F60A0150461FF0A9F910B1F9
:103150004FF002097CE06A4640F60B0150461FF032
:103160009FF910B14FF0020972E06A4643F60F0171
:1031700050461FF095F910B14FF0020968E06A4619
:1031800043F60E0150461FF08BF910B14FF00209C3
:103190005EE06A4640F63C0150461FF081F910B1EE
:1031A0004FF0020954E06A4640F63D0150461FF0D8
:1031B00077F910B14FF002094AE06A4640F63A0149
:1031C00050461FF06DF910B14FF0020940E06A4619
:1031D0004FF4046150461FF063F910B14FF002093B
:1031E00036E06A4640F6450150461FF059F910B1E5
:1031F0004FF002092CE06A4640F6410150461FF0AC
:103200004FF910B14FF0020922E06A4640F6420140
:1032100050461FF045F910B14FF0020918E06A4618
:1032200040F6430150461FF03BF910B14FF0020940
:103230000EE06A4640F6490150461FF031F910B1E0
:103240004FF0020904E0B9F1000F01D14FF001097C
:1032500000BF00BF6D1C608CC0F3C500A8423FF6E4
:103260008EAE48466BE700000148006870470000DA
:103270004C03002070470146C1F30412072A00DD09
:103280000722D0B27047000010B518210348FFF79D
:10329000DCFC012020F0FCFC10BD0000EC40002014
:1032A0002DE9F04105460F4616460DB9BDE8F081FF
:1032B0002846FDF710F88046394628460A4A126823
:1032C00090470746E8193146074A12689047064674
:1032D0003C4603E0A019285C2855641CA8EB0600B6
:1032E000A042F7D200BFE1E7B40400202DE9F0418D
:1032F00006460C4617461D4629463046084A1268BF
:1033000090472060206830B1296888190021044A5C
:103310001268904700E000203860BDE8F0810000AE
:10332000AC0400202DE9F04F87B004460F469246CA
:103330009846DDE910560DB1002028801CB9002008
:1033400007B0BDE8F08F207808B90020F8E70FB982
:103350000020F5E74FF0000906F0020010B906F072
:10336000040098B1002000E0401C215C0A2905D02F
:10337000215C0D2902D0215C0029F5D1215C01B12D
:10338000401C15B14FF0FF312980D9E706F002004B
:1033900008B141F6FF7800200690059038E0002043
:1033A0000490059808B9012000E0002006A904AAAD
:1033B000CDE90062CDE902100599601843465246F6
:1033C000394620F0F7FE83460498A8EB00000FFA78
:1033D00080F8049848440FFA80F9BBF1000F00D13F
:1033E0001CE005985844059020780A2802D02078DF
:1033F0000D2800D112E00598205C0A2803D005981A
:10340000205C0D2803D10598401C059006E000BF04
:103410000598205C10B1B8F1000FC0DC00BF059822
:1034200070B905A92046094A12689047834635B10C
:1034300000225946384614F062FE0FFA80F900BFA8
:103440000DB1A5F8009005987AE70000AC040020C3
:103450002DE9F04706468846174606B10FB9BDE884
:10346000F0873046FCF737FF81463846FCF733FFDC
:10347000044604B9F3E704EB090A414630460B4A17
:10348000126890478046554603E0281B305C705513
:103490006D1E08EB0400A842F7D906EB080022468F
:1034A000394618F06CF900BFD9E70000B4040020D9
:1034B000024600200FA31B788B4211D113781BB951
:1034C0000123137001200BE01378012B02D100239C
:1034D000137005E01378022B02D100231370012032
:1034E0001378012B04D1202901D10223137001206C
:1034F000704700002300000073B582B006460398B1
:103500000190324600210846019B21F06FF90546E3
:10351000002001900024681C17F092FE044600BFB2
:103520001CB900BF00BF00BFFEE700BF14B90020F8
:1035300004B070BD002060553246691C2046039BD4
:1035400021F054F92046F3E72DE9F04781460E4675
:1035500014461F46DDF820A035461BE0600800FB3E
:10356000075529464846D047B0F1000809DD04F068
:10357000010080F00100C0EB5404E819054606463E
:1035800008E0B8F1000F02DA6408354602E0284688
:10359000BDE8F087002CE1D10020F9E72DE9FF4FCD
:1035A00085B08346DDE9158ADDE91349DDE9177544
:1035B000129E05F00200F8B94FB105F0010030B1DC
:1035C000B9F1000F02D105F00C0000B17F1E03E03D
:1035D00030222046641C3254544501D2202CF7D3AB
:1035E00003E030222046641C325405F0010018B17B
:1035F000BC4201D2202CF4D305F01000B0B305F486
:10360000806050B94CB1544501D0BC4205D1641E14
:103610001CB1B8F1100F00D1641EB8F1100F09D120
:1036200005F0200030B9202C04D278222046641CFA
:10363000325415E0B8F1100F09D105F0200030B177
:10364000202C04D258222046641C325408E0B8F1E1
:10365000020F05D1202C03D262222046641C325472
:10366000202C03D230222046641C3254202C16D247
:10367000B9F1000F04D02D222046641C32540EE014
:1036800005F0040020B12B222046641C325406E0D1
:1036900005F0080018B120222046641C3254CDE900
:1036A0000275CDE90064584606A90EC900F0A2F8DB
:1036B00009B0BDE8F08F2DE9FF4F8FB08046DDE9FE
:1036C0001FABDDE91D96219D1C9C00270CB925F040
:1036D000100505F4806000B1E4B100BFB4FBF6F161
:1036E00006FB1141C8B20A2802DA00F1300107E0F6
:1036F00005F0200109B1412100E0612101440A39AE
:10370000CBB239467F1C07AA5354B4FBF6F40CB174
:10371000202FE3D307A8CDE904AB8DE881020396FF
:103720000695404610A90EC9FFF738FF13B0BDE853
:10373000F08F2DE9FF4F8FB0DDE9217BDDF8908020
:10374000209EDDE91C454FF00009002184EA0100BC
:103750006940084301D128F0100808F4806028B1BE
:10376000002184EA0100694008432DD000BF3246A1
:103770003B4620462946FCF759FD02F0FF0ABAF104
:103780000A0F02DA0AF1300007E008F0200008B161
:10379000412000E0612050440A38C2B2484609F195
:1037A000010907A90A5432463B4620462946FCF740
:1037B0003DFD04460D46002184EA010069400843AE
:1037C00002D0B9F1200FD2D32398CDE9036BCDE914
:1037D000050807A91E98CDE9001902900FA80FC887
:1037E000FFF7DCFE13B0BDE8F08F9A4200D2885498
:1037F000704770472DE9FF5F05461446DDE90EA6C8
:10380000DDE91087A34607F0020078B907F0010050
:1038100060B9B14607E02246641C2020039B019951
:10382000A84709F10109C145F5D300BF08E02246C8
:10383000641C711E0E461AF80100039B0199A847EB
:10384000002EF4D107F0020050B105E02246641CBE
:103850002020039B0199A847A4EB0B004045F5D31A
:10386000204604B0BDE8F09F2DE9FF4F8BB09A468B
:103870000F460446002606E025280BD052460D9937
:103880009047641C761C20780028F5D10FB0304694
:10389000BDE8F08F0025A94601227D4900E00543DF
:1038A00014F8013F203B02FA03F00842F7D12078D8
:1038B0002E2817D114F8010F45F004052A280ED040
:1038C0006FF02F022078A0F1300109290AD809EB06
:1038D000890102EB410100EB0109641CF2E757F892
:1038E000049B641C20786C280DD004DC4C2812D07A
:1038F0006A2811D104E074280DD07A280CD10AE08E
:1039000045F4001507E0617845F48015814202D145
:10391000641C05F58015641C207869283ED006DCFF
:103920000028B3D063280BD0642804D136E0732874
:1039300010D075285CD052460D999047761CA5E0B2
:1039400017F8040B8DF8000000208DF80100E84600
:10395000012003E057F8048B4FF0FF3069074FF068
:10396000000501D40AE06D1C4D450DDA8542FADBF5
:1039700018F805100029F6D106E06D1C8542FCDB25
:1039800018F805100029F8D12E4404E018F8010BAE
:1039900052460D9990476D1EF8D277E000200A90AC
:1039A000C5F302504FF00A0B02280CD001CFC1170B
:1039B000021E71F100020CDA0023D0EB030063EB6E
:1039C00001012D2208E0FF1D27F00707F7E802019B
:1039D000EEE72A0504D52B228DF82420012203E0EE
:1039E000EA070FD02022F7E70DF12008089218E02F
:1039F00000200A90C5F302504FF00A0B022803D0B2
:103A000001CF00210022EFE7FF1D27F00707F7E8AD
:103A10000201F7E75A460A9BFCF708FC303208F827
:103A2000012D50EA0102F5D1ADEB080000F1200BA9
:103A3000680701D44FF00109D94502DDA9EB0B005D
:103A400000E000208146002506E009A85246405DBE
:103A50000D9990476D1C761C08988542F5DB04E0B3
:103A6000302052460D999047761CB9F10001A9F11A
:103A70000109F5DC05E018F8010B52460D99904755
:103A8000761CBBF10001ABF1010BF4DC641CFAE61F
:103A9000092801002DE9FF4F8BB0074600250C983F
:103AA00000B9FA4FEAE20E98007825280AD02A4693
:103AB0006D1C0E990878DDE90C13B8470E98401C70
:103AC0000E90DBE20E98401C0E90002400BF0E9872
:103AD00000782B2819D004DC20281ED023282CD1D4
:103AE00023E02D2809D0302827D144F001040E9876
:103AF000401C0E9001200A9022E044F002040E982F
:103B0000401C0E9001200A901AE044F004040E9824
:103B1000401C0E9001200A9012E044F008040E9818
:103B2000401C0E9001200A900AE044F010040E9808
:103B3000401C0E9001200A9002E000200A9000BF75
:103B400000BF0A980028C2D180460E990878FDF778
:103B500070FF20B10EA8FDF757FF804612E00E98C7
:103B600000782A280ED1189901C91891002804DA82
:103B700044F00204C0F1000800E080460E99491CA0
:103B80000E9100BF4FF000090E9800782E281FD12B
:103B900044F480640E98401C0E900E990878FDF74E
:103BA00048FF20B10EA8FDF72FFF814610E00E98C8
:103BB00000782A280CD1189901C91891002801DD34
:103BC000014600E0002189460E99491C0E9100BF74
:103BD0000E9800786C280AD004DC682816D06A2871
:103BE00035D128E0742820D07A2830D129E044F457
:103BF00080740E98401C0E900E9800786C2804D1AA
:103C000044F400740E98401C0E9021E044F08004AF
:103C10000E98401C0E900E980078682804D144F04D
:103C200040040E98401C0E9012E044F480740E98EC
:103C3000401C0E900CE044F400740E98401C0E9052
:103C400006E044F480740E98401C0E9000E000BF23
:103C500000BF0E98007869281DD00EDC622821D0A4
:103C600006DC25287ED050281AD058287BD115E0B4
:103C7000632879D06428F9D10CE0732875D004DC6E
:103C80006F280ED07028F1D109E0752804D078286B
:103C9000ECD102E000BF00BF00BF00BF00BF00BF0B
:103CA00000BF00BF0E980078782803D00E980078E7
:103CB000582801D1102623E00E980078702803D0F0
:103CC0000E98007850280CD1102644F0100444F4CB
:103CD00080740E984078562812D10E98401C0E9091
:103CE0000EE00E9800786F2801D1082608E00E98A3
:103CF0000078622801D1022602E00A2624F010048E
:103D00000E980078582803D00E980078502801D1DA
:103D100044F020040E980078692805D00E980078A9
:103D2000642801D024F00C0404F4806008B124F06D
:103D300001040E980078692803D00E980078642852
:103D40007CD104F40070B8B31898C01D20F00700AF
:103D50001890D0E900AB189A083218920020CDE9EB
:103D6000069803E073E17CE1F2E01CE1CDE9046038
:103D70000894BAEB00017BEB000001DA012000E0BF
:103D80000020002102900846B1EB0A0170EB0B0005
:103D900002DA5046594605E000200146B0EB0A0021
:103DA00061EB0B01CDE900012A463846DDE90C1331
:103DB000FFF7BFFC0546C7E0FFE704F48070D0B111
:103DC000189850F804AB18904FEADA70CDE90398D0
:103DD00002960594BAF1000F01DD514601E0CAF1E7
:103DE0000001CDE900102A463846DDE90C13FFF743
:103DF00062FC0546A8E004F0400028B1189810F8CD
:103E0000041B1890C8B20DE004F0800028B1189887
:103E100030F8041B189008B204E01898006818994C
:103E2000091D189182464FEADA70CDE9039802968F
:103E30000594BAF1000F02DD514602E00BE0CAF131
:103E40000001CDE900102A463846DDE90C13FFF7E2
:103E500032FC054678E00E980078562818D118985C
:103E600050F804AB1890DAF804000068099009983B
:103E70000090DAF800300D98421B0C984119384632
:103E8000FFF708FE0544002009905DE0F3370008C5
:103E900004F40070D0B11898C01D20F00700CDE9DF
:103EA0000698089418900020CDE9046002901899B3
:103EB00003C9189A08321892CDE900012A463846FB
:103EC000DDE90C13FFF735FC05463DE004F4807096
:103ED00098B10022CDE903980296059418980068DD
:103EE0001899091DCDE9000218912A463846DDE9E6
:103EF0000C13FFF7E0FB054626E004F0400028B174
:103F0000189810F8041B1890C8B20DE004F0800057
:103F100028B1189830F8041B189088B204E018985B
:103F200000681899091D189182460020CDE900A06B
:103F3000CDE90398029605942A463846DDE90C132C
:103F4000FFF7B9FB054600BF0E98401C0E9093E0AA
:103F5000012604F0020050B905E02A466D1C20201D
:103F6000DDE90C13B8473046761C4045F5D3189967
:103F700011F8043BD8B22A466D1C1891DDE90C13E8
:103F8000B84704F0020050B105E02A466D1C20201D
:103F9000DDE90C13B8473046761C4045F5D30E9842
:103FA000401C0E9068E0189850F804AB18905046EA
:103FB000B9F1000F01D0494601E04FF0FF310A4648
:103FC000014600E0491C0B781BB1131EA2F101024F
:103FD000F8D10E1A04F4806028B14E4501D2304663
:103FE00000E04846064604F0020050B905E02A46C3
:103FF0006D1C2020DDE90C13B8473046761C404587
:10400000F5D306E01AF8010B2A466D1CDDE90C1306
:10401000B8479AF8000040B104F480600028F1D05D
:10402000B9F10000A9F10109ECD104F0020050B18E
:1040300005E02A466D1C2020DDE90C13B847304608
:10404000761C4045F5D30E98401C0E9014E02A468D
:104050006D1C2520DDE90C13B8470E98401C0E900E
:104060000AE02A466D1C0E990878DDE90C13B84762
:104070000E98401C0E9000BF00BF00BF0E98007845
:1040800000287FF410AD0D98854201D2284601E04A
:104090000D98401E02460020DDE90C13B847284663
:1040A0000FB0BDE8F08F2DE9F04104460E46002721
:1040B00074B13146204600F02DF80546B5F5004FA5
:1040C00005D20C2D01D9284600E00C20074600BF80
:1040D0003846BDE8F081024600BF481E084018B1CE
:1040E00000BF00BF00BFFEE700BF481E1040101A0F
:1040F000704710B502464B1E13444C1E23EA0400C1
:1041000000BF4B1E0B401BB100BF00BF00BFFEE74E
:1041100000BF10BD024600BF481E084018B100BFD6
:1041200000BF00BFFEE700BF481E10444B1E98436F
:10413000704700002DE9F04180460E4644460120BC
:104140006086002500270DE056F8270025A1FCF722
:10415000C9F810B1681C85B202E0608E401C608610
:10416000781C87B256F8270020B156F8270000784F
:104170000028E9D1208EA84201D1BDE8F081A06AD3
:1041800020B1A06A17F02AF90020A062E06A20B1ED
:10419000E06A17F023F90020E062E80017F050F819
:1041A000A06200BFA06A18B900BF00BF00BFFEE751
:1041B00000BF680017F044F8E06200BFE06A18B979
:1041C00000BF00BF00BFFEE700BFA06A08B1E06A01
:1041D00000B900256900E06A17F017FB258600BFCB
:1041E000CBE700000A0000002DE9F84F81460E469B
:1041F000924699F8090000F00700022801D13046E4
:1042000000E050468346564501DD304600E050460A
:104210000746032000EB470020F0030000F11005E3
:104220003948006839490968A0EB0108002405EB0A
:10423000080037490968884206D233480468606834
:1042400020F0004060603AE031480068854221D8A3
:1042500013E04FF0FF300090002269462D480BF02C
:10426000CCFF002269462C480BF0C7FF26480068A7
:1042700026490968A0EB010800BF08EB05002449A6
:1042800009688842E5D820480468606820F000404A
:10429000606014E0284616F0D3FF044600BF1CB946
:1042A00000BF00BF00BFFEE700BF14B90020BDE89B
:1042B000F88F606820F0004000F1004060603246F6
:1042C0005946484601F038FD2060606800F04040E3
:1042D000401C6060606820F080406060A781A4F8A6
:1042E0000EB06068C00F20B1204600F11001A1603F
:1042F00008E0054800681030A060034800682844C2
:10430000014908602046D2E7540300207C040020C5
:1043100050030020DDDD0008D9020108F0B585B0AA
:1043200006460D463446002004900390029094F80F
:104330003C0000F0030020B1012838D0022866D0EC
:1043400000BF94F83C0000F003005A490978884205
:104350001BD02620005D00EB001000EB4000142174
:1043600090FBF1F0544908702720005D00EB00102D
:1043700000EB4000142190FBF1F05049087094F8D4
:104380003C0000F003004B49087002A803A9CDE9E6
:10439000001005EB45014FF6FF7202EA410004AB45
:1043A00046490A784449097809F0EEF95FE094F843
:1043B0003C0000F003003F49097888421AD0A08CE5
:1043C00000EB400040024FF4B471B0FBF1F03C4907
:1043D00008802720005D00EB001000EB4000142156
:1043E00090FBF1F03549087094F83C0000F00300B0
:1043F0003049087002A803A9CDE90010E9B204AB66
:104400002E4802782E48008809F0BEF92FE094F873
:104410003C0000F003002749097888421AD0A08C9C
:1044200000EB400040024FF4B471B0FBF1F02449BE
:1044300008802620005D00EB001000EB40001421F6
:1044400090FBF1F01C49087094F83C0000F0030068
:104450001849087002A803A9EAB204ABCDE900101C
:10446000154801781648008809F08EF900BF00BF92
:104470009DF810009DF80C109DF80820D708BDF895
:10448000003067F304038F080093BDF8003067F332
:104490004A13C7080093BDF8003067F3CF23009399
:1044A000BDF800703B460193BDF80410084605B006
:1044B000F0BD0000EE030020EC030020ED0300201F
:1044C000EA03002010B50120074908700748FEF7ED
:1044D00091FB20B9064800681FF0B6FC03E00448D1
:1044E00000681FF0BDFC10BD640400201C410020CA
:1044F0006804002010B5044694F83E00C0F3400064
:1045000050B9A08F002807DDA08F4FF6FF718842B9
:1045100002D0A08F401EA087A08FA8B9606B20B1E9
:1045200094F83E00C0F3400070B121461748FEF7F2
:10453000E0FBFFF7C7FFE06810B12046E16888475D
:10454000204616F04BFF1FE0A06B4042E062606B1C
:10455000D0B194F83E10C1F3400111B9216B49422A
:10456000E16294F83E104908C94394F83E2061F393
:10457000410284F83E20E069616AE1616062A06AFC
:10458000616BA162606300BF10BD00001C41002090
:104590002DE9F0418046424800681FF02BFB06469B
:1045A0004048007880F001003E4908703E48FEF720
:1045B00021FB04466BE000203C49087094F83E0063
:1045C000C0F3800037490978884253D035480178D4
:1045D0002C34A07C61F38200A07420688719A07C31
:1045E0002C3CC0F3C00010BBE06A00281FDC002F89
:1045F0001DDB94F83E0000F0010060B9206950B165
:104600002046216988470546E0692844E061606AE0
:104610002844606200BFA06810B12046A1688847A6
:1046200094F83E0020F00800083084F83E00E06A6C
:104630003044E062E06A00281BDBD4E90A108842BB
:1046400001DDA06AE0622046A16988470546206A2C
:10465000A84206D02562606818B12946D4E9000254
:104660009047D4E90A10884202DB2046FFF742FF58
:1046700000BF00BF0D48007820B10B48FEF7BAFA22
:10468000044604E021460848FEF7CCFA0446002C14
:1046900091D11FF0BCFA02490860BDE8F08100002A
:1046A00060040020650400201C41002064040020F8
:1046B0002DE9F0412DED068B054695ED000AF0EE53
:1046C000408A95ED010AB0EE408A95ED020ADFEDD1
:1046D0004F0A20EE200ADFED4E0A20EE200AB0EE4F
:1046E000409A95ED030ADFED490A20EE200A10EE0C
:1046F000101A0846FBF7E6FF41EC1A0BB1EE040A6C
:10470000C8EE000A9FED430A20EE800ABDEEC00A03
:1047100010EE106ABDEEE80A10EE104A00EE104AE4
:10472000B8EEC00A38EEC00AB0EEC00ADFED370AB4
:1047300020EE200ABDEEC00A10EE107A31B23648E3
:1047400000680CF048FF224634A13648006816F095
:10475000CDFBBDEEC90A10EE104A00EE104AB8EECD
:10476000C00A39EE400AB0EEC00ADFED280A20EE9A
:10477000200ABDEEC00A10EE107A3B4622462AA15E
:104780002E48006816F0B2FB51EC1A0BFBF77BFFCA
:10479000044651EC1A0BFBF7D9FF00EE900A00EE2D
:1047A000104AB8EEC00A30EEC00AB0EEC00ADFED23
:1047B000170A20EE200ABDEEC00A10EE107A3B4622
:1047C00022461FA12348006816F090FBBDEEC80AE0
:1047D00010EE104A00EE104AB8EEC00A38EE400A59
:1047E000B0EEC00ADFED090A20EE200ABDEEC00AD5
:1047F00010EE107A3B46224617A11A48006816F0C0
:1048000075FBBDEC068BBDE8F081000000007A442A
:10481000000070420000C842EC04002053513A20CE
:1048200025640000F4040020696E73743A20256446
:104830002E25303364204C2F6D696E00FC0400205F
:10484000746F74616C3A2025642E25303364204CDB
:1048500000000000F004002025642E253033642081
:104860006D2F7300F8040020F7B582B004460E46A1
:1048700014B9049805B0F0BD00BF6322314620464C
:1048800019F01CFE0190019D00BFBDB12868A8B1C0
:1048900000BF64223146204619F010FE01900198B5
:1048A000C0B207464FB13A462B682846049998474C
:1048B0000190BDF80400ADF8100000BF0498D9E7DE
:1048C00070B504460D46606818B129466068FFF768
:1048D000F7FF206818B1294620462268904770BD2E
:1048E00070B505460C46A1B228460CF0DDFD70BD42
:1048F00070B505460C46A1B228460CF026FE70BDE8
:1049000070B504460D4600BF204600F03BF818B1D4
:1049100000BF00BF00BFFEE700BF284600F050F90F
:10492000001D616808446060204600F03AF82046A7
:1049300070BD70B505460C46284600F041F904F1FB
:104940001001884201D3012070BD0020FCE7014620
:10495000A1F1080070477CB505460C46204600F0E2
:104960002FF906466A4601A920F0B0FA21462846EA
:10497000DDE900320BF0B4F97CBD0146087900F0A6
:104980000100704710B50446204600F019F908B937
:10499000012010BD0020FCE70146087900F002006C
:1049A000704770B50446204600F097F805462C6025
:1049B000284670BD7CB506460C460020019000904C
:1049C00000256CB16A4601A9204620F09CFA0198A6
:1049D000092805DA6A4601A9304622F0DDFD0546C0
:1049E00085B100BF284600F0EBF8A04203D200BF1B
:1049F00000BF00BFFEE700BF29463046DDE90032B8
:104A000022F098F828467CBD70B504462046FFF792
:104A1000C8FF0546284600F0BEF8204600F0B6F86C
:104A200070BD70B50446204600F057F8054628468C
:104A300000F0B6F8204600F0BEF870BD70B506462E
:104A40000D46284600F049F8044600BF1CB900BFD7
:104A500000BF00BFFEE700BF2046FFF78EFF90B10A
:104A600000BF2846FFF78EFF18B100BF00BF00BF90
:104A7000FEE700BF2146304600F076F82146284682
:104A8000FFF73EFF0546284670BD70B506460D4649
:104A90002846FFF781FFF0B1284600F057F804469A
:104AA00000BF1CB900BF00BF00BFFEE700BF00BFD2
:104AB0002046FFF762FF18B900BF00BF00BFFEE746
:104AC00000BF2146304600F04FF829462046FFF748
:104AD00017FF054600BF284670BD2DE9F04104468A
:104AE000204600F06DF8061F204600F0B8F8074693
:104AF000314620F089FC054600BF2046FFF742FF03
:104B000018B100BF00BF00BFFEE700BF2846BDE8E8
:104B1000F0812DE9F04106460C461546002794B178
:104B200000BF1DB900BF00BF00BFFEE700BF2A469F
:104B30002146304600F097F82046FFF772FF2046E6
:104B400000F08DF807463846BDE8F08110B5044600
:104B500000BF2046FFF720FF18B900BF00BF00BF0D
:104B6000FEE700BF206810BD7CB505460C46204618
:104B700000F026F806466A4601A920F0A7F921466A
:104B80002846DDE9003221F0D5FF7CBD416841F0C7
:104B9000010141607047416841F002014160704786
:104BA000416821F0020141607047426802F003034E
:104BB0000B4343607047416821F001014160704739
:104BC0000146486820F0030070472DE9F04706468B
:104BD0000C46304600F043F88046211F20F014FCBC
:104BE00007463046FFF7ECFF211D451A00BF384647
:104BF00000F035F88146384600F031F8804604214F
:104C0000FFF777FA814503D000BF00BF00BFFEE782
:104C100000BF00BF3046FFF7D3FF2919091D8842A6
:104C200003D000BF00BF00BFFEE700BF29463846E3
:104C3000FFF7BBFF00BF3846FFF7C2FF0C2803D2C7
:104C400000BF00BF00BFFEE700BF21463046FFF7B0
:104C5000ACFF3846FFF7D8FE3846BDE8F08701467E
:104C600001F1080070472DE9F04106460C46154653
:104C700000BF2046FFF781FE18B900BF00BF00BF8C
:104C8000FEE700BF29462046FFF753FE78B12946CC
:104C90002046FFF79AFF07462046FFF782FE384678
:104CA000FFF779FF39463046FFF755FE00BFBDE8F4
:104CB000F0812DE9F04106460C46154600BF20461E
:104CC000FFF75BFE18B100BF00BF00BFFEE700BFEB
:104CD00029462046FFF72DFE88B129462046FFF7DA
:104CE00074FF07463846FFF75BFF39463046FFF74B
:104CF000A5FE074639463046FFF72DFE00BFBDE84A
:104D0000F0812DE9F8430646344614F043FD804611
:104D1000404614F084FD78BB304612F0C4FD38B331
:104D2000304612F030FC208FE18E884212D0E08EA7
:104D30002087E08E00906A461C21304613F0A0F8D0
:104D40000746012F02D03846BDE8F88330461AF0F6
:104D500029F900BF404614F072FD0546042D06D126
:104D6000304618F03DF90746002113F013FE09E024
:104D7000304612F0FBFD05E0FFE7208FE08630466D
:104D80001AF010F90120DFE70146C1F3C0107047A7
:104D90000146C1F3801070470146C1F3C01070474F
:104DA0000146C1F3002070470146C1F3C0007047BF
:104DB0000146C1F3401070470146C1F340207047DF
:104DC0000146C1F3003070470146C1F3001070473F
:104DD0002DE9FC5F05460022114628461BF0BCF970
:104DE0000021284618F0F1FF81460021284619F0DD
:104DF000C9FA484407B20021284619F0E2F84844AD
:104E00000FFA80FA284618F015FF384450440FFA7C
:104E100080FB3B4E284618F01AF801904FF000082E
:104E20005CE0A868006850F828403649204619F030
:104E300064FD00B150E020461AF032F9002839D163
:104E40000021204618F028FF0090009830B101287A
:104E500007D0022804D0032815D100E000BF00BF0E
:104E600000BFB4F91A10B5F91600081A401CB04278
:104E700001DA304605E0B4F91A10B5F91600081A3F
:104E8000401C06B214E00021204619F0E4FC70B981
:104E900004F114000CF023FC3844B04201DA30462F
:104EA00004E004F114000CF01AFC384406B200BF10
:104EB00000BF10E0B4F91A10B5F91600081A401C2A
:104EC000B04201DA304605E0B4F91A10B5F916001F
:104ED000081A401C06B200BF08F10108019880457D
:104EE0009FD30748864209D006EB0A0006B25E450A
:104EF00002DD3046BDE8FC9F5846FBE75846F9E71F
:104F000001E0FFFF010004002DE9FC5F05460022DF
:104F1000114628461BF004F90021284618F055FFD9
:104F200082460021284619F091F950440FFA80F882
:104F30000021284619F0FBF850440FFA80F9284662
:104F400018F088FE4844404400B20190724C284654
:104F500017F07DFF83460021284618F0CFFE012878
:104F600066D100265BE0A868006850F826706B499F
:104F7000384619F0C2FC00B150E038461AF090F8FB
:104F8000002839D10021384618F086FE009000989C
:104F900030B1032805D0062804D0082815D102E036
:104FA00000BF00BF00BFB5F91800B7F91410401AD0
:104FB000401CA04201DA204605E0B5F91800B7F917
:104FC0001410401A401C04B214E00021384619F0B5
:104FD00035FC70B907F114000CF0DFFB4044A0422F
:104FE00001DA204604E007F114000CF0D6FB40443F
:104FF00004B200BF00BF10E0B5F91800B7F91410F3
:10500000401A401CA04201DA204605E0B5F918001C
:10501000B7F91410401A401C04B200BF761C5E455C
:10502000A1D33D48844269D004EB090004B265E095
:1050300000265BE0A868006850F8267037493846BB
:1050400019F05BFC00B150E038461AF029F880BB3B
:105050000021384618F020FE0090009830B1012859
:1050600005D0042804D0072815D102E000BF00BFF6
:1050700000BFB7F91800B5F91410401A401CA0423F
:1050800001DA204605E0B7F91800B5F91410401A06
:10509000401C04B215E00021384619F0DCFB78B959
:1050A00007F114000CF079FB4844A04202DA2046D4
:1050B00005E008E007F114000CF06FFB484404B26F
:1050C00000BF00BF10E0B7F91800B5F91410401A7E
:1050D000401CA04201DA204605E0B7F91800B5F9F6
:1050E0001410401A401C04B200BF761C5E45A1D3C8
:1050F0000948844202D004EB080004B20648844206
:1051000002D10198BDE8FC9F0198844201DD204650
:10511000F8E70198F6E7000001E0FFFF0100040056
:105120007CB504460D46164628882189084400B2FD
:10513000ADF8000068886189084400B2ADF802004B
:10514000A8882189084400B2ADF80400E888618984
:10515000084400B2ADF8060032466946204663694D
:1051600098477CBDF8B505460E462C46206B10B11D
:10517000206B007818B9606B08B90120F8BD606B2E
:1051800058B128461EF0E3FA0746104909688847D7
:10519000616B884201D30020F0E7206B98B10020BA
:1051A00000900AE069460A4A206B12689047074659
:1051B000B74201D10120E1E700BF206B0099405CBC
:1051C0000028EFD1DAE70120D8E70000BC04002076
:1051D000AC0400202DE9FF4F8FB00F46209DF878DA
:1051E00000F0010008B1FA4800E0FA480E90F878A3
:1051F00000F0010008B1F84800E0F8480D90F87898
:1052000000F0010008B9F44800E0F4480C900120D7
:105210000B90B5E000220B9200206A88B5F804C01C
:10522000A2EB0C0211B200261AE006EB860CEA682B
:1052300002EB8C02127C02F0010242B906EB860CF2
:10524000EA6802EB8C029289024410B207E006EB96
:10525000860CEA6802EB8C0212898A1A11B2761C5B
:105260002A69B242E1D8002685E006EB860CEA689E
:1052700002EB8C02127C02F00102002A7AD191FB2F
:10528000F0F80FFA88F306EB8609D5F80C8008EBE6
:105290008908B8F80C8008FB03F80FFA88F206EBCF
:1052A0008609D5F80C8008EB8908B8F9049006EB5C
:1052B000860AD5F80C8008EB8A08B8F90680904574
:1052C00001DD904607E006EB860AD5F80C8008EB76
:1052D0008A08B8F90680C14508DD06EB8609D5F8CD
:1052E0000C8008EB8908B8F9048013E006EB860906
:1052F000D5F80C8008EB8908B8F90680904501DDE7
:10530000904607E006EB8609D5F80C8008EB890883
:10531000B8F90680C44694450BD04FF0010806EB5F
:10532000860AD5F80C9009EB8A09C9F81080CDF8E7
:105330002C8006EB8609D5F80C8008EB8908A8F8C4
:1053400008C006EB8609D5F80C8008EB8908B8F888
:105350000C80A0EB08080FFA88F006EB8609D5F858
:105360000C8008EB8908B8F80880A1EB08080FFA50
:1053700088F100BF761C2A69B2423FF676AF00BFC3
:105380000B9800287FF446AF00210F9818F0D0FC4E
:10539000012800D100E000200A9000200990089028
:1053A00008A809A9CDE9001029890BB2B5F9022096
:1053B00038781E9920F074F8F87800F0010048B1B0
:1053C0000A9838B10F9817F0A1FDBDF824100844D1
:1053D00000B2099011990F9817F01BFD04468AE15D
:1053E0007F49204619F089FA40B1F878C0F380016E
:1053F00011AA0F9809F0CBFF04467CE1002120465A
:1054000018F040FD07900798002858D0002003901E
:10541000002610E006EB8601E86850F82100A04263
:1054200008D106EB8600E96801EB8000B0F90800BE
:10543000039003E0761C2869B042EBD800BFF878EF
:1054400000F0010030B1608C20F4806000F58060D5
:10545000608405E0608C20F4007000F500706084CA
:1054600004F114000D9988470399884226D02046FC
:1054700019F098FD00BFA08AADF80400E08AADF8ED
:105480000600208BADF80800608BADF80A0000BF65
:1054900004F114000E9A0399904701AA292120468D
:1054A00012F0EEFC204617F0F5FD22462221009076
:1054B00012F0E6FC204619F075FD00BF07E0608C95
:1054C00020F480606084608C20F400706084002090
:1054D00006907878012812D0022819D104F114001E
:1054E0000C998847B5F90010491C21F00101081AF0
:1054F000039000EBD070401000B2069009E004F178
:1055000014000C9988472988081A00B2069000E018
:1055100000BF00BFF87800F0010050B10A9840B118
:1055200004F114000D998847BDF82410081A00B240
:1055300009900020039043F20C022046039918F0D2
:10554000BDFF029002980FFA80F800BF0020039080
:1055500043F20D022046039918F0B0FF0290029822
:105560000FFA80F900BF204619F082F90590204615
:1055700017F040FD049008F4C040B0F5005F01D181
:10558000012000E0002030B128F4C040B0F5FA6FEF
:1055900001DC012000E0002090B128F4C040B0F50B
:1055A0007A7F04DD28F4C040C0F57A7001E028F469
:1055B000C04005994843642190FBF1F00FFA80F850
:1055C00009F4C040B0F5005F0CD101200BE00000F1
:1055D000BD180108B118010819180108331701088E
:1055E00001000600002030B129F4C040B0F5FA6F88
:1055F00001DC012000E0002090B129F4C040B0F5AA
:105600007A7F04DD29F4C040C0F57A7001E029F406
:10561000C04004994843642190FBF1F00FFA80F9EF
:10562000A18A1C98401A40440FFA80FAE18A1D981A
:10563000401A48440FFA80FBF87800F0010010B1DE
:10564000BDF9240000E0069850440FFA80FAF8787B
:1056500000F0010008B1069801E0BDF924005844AB
:105660000FFA80FBBAF1000F02D1BBF1000F1BD083
:10567000204619F097FCA08A504400B2A082208BEB
:10568000504401B22183E08A584401B2E182608B28
:10569000584401B26183204619F084FC01235A4624
:1056A0005146204619F05CFDF87800F0010008B181
:1056B0000A9870B904F114000D9988471F9908449D
:1056C000BDF820100844BDF82410084400B2099029
:1056D00008E0BDF820101F980844BDF82410081AEF
:1056E00000B20990F878C0F3800111AA0F9809F070
:1056F0004EFE044600BF24B1DDE9111081427FF463
:105700006FAE13B0BDE8F08F2DE9F04F8DB00546B8
:105710008946B9F1000F02D10DB0BDE8F08FA5F8B0
:105720001890286810B1286815F058FE09EB490157
:10573000062202EB410015F083FD286000BF2868B7
:1057400018B900BF00BF00BFFEE700BF286868604F
:105750000221286801FB0900801CE86004212868F8
:1057600001FB0900001DA860B9F1010F0CD1B420A4
:10577000696808700020E96808800120E9684880AD
:105780000020A9680880C7E709F10101C80015F0E9
:1057900091FD074609F1010007EB80084FF0000A70
:1057A0004FEA890002B20BA90CA800F067F90024A7
:1057B000BDF930008010079000200390CCE0002657
:1057C00016E00BA90CA800F061F90CA800F04BF949
:1057D00000B90FE0BDF93000801007A941F826009C
:1057E000BDF8300000F0030003A941F82600761C44
:1057F000042EE6DB00BF042E00D0B3E00A99079820
:10580000884219D1079800B227F814000FFA8AF0DD
:1058100028F81400DDE903010844059908440699B5
:105820000844696808556868005D0007000E6968EB
:105830000855601C04B28DE0DDE9070188422CD0D8
:10584000079800B227F814000FFA8AF028F814001D
:105850000398696808556868005D0007000E69686C
:105860000855601C04B20798401E00B227F81400C7
:105870000FFA8AF028F814000498001D05990844CE
:1058800006990844696808556868005D0007000EBD
:1058900069680855601C04B25CE009990798884261
:1058A0002CD0079800B227F814000FFA8AF028F8D5
:1058B0001400DDE903010844696808556868005D63
:1058C0000007000E69680855601C04B20798401E66
:1058D00000B227F814000FFA8AF028F8140005988F
:1058E000083006990844696808556868005D000733
:1058F000000E69680855601C04B22BE0079800B2DE
:1059000027F814000FFA8AF028F81400DDE90301E3
:10591000084405990844696808556868005D0007EF
:10592000000E69680855601C04B20798401E00B25A
:1059300027F814000FFA8AF028F8140006980C30A3
:10594000696808556868005D0007000E69680855B9
:10595000601C04B20AF1010A0CA800F084F80028C7
:105960007FF42DAF00BF40F2D32109FB01F002907C
:10597000029880120190601E37F910100198814240
:1059800005D1601E38F910100198814226D0DDE95A
:105990000121A1EB8220B0F5007F04DC00FB00F1C7
:1059A0004800001407E0C0F5806000FB00F14800EB
:1059B0000014C0F10F00019909B227F814100199E1
:1059C00009B228F814106A6810556968095D09075A
:1059D000090E6A681155611C0CB200BFA61E0EE0CC
:1059E00038F8160027F8140037F8160028F81400C5
:1059F0006868805D69680855761E601C04B2002ED8
:105A0000EEDA4FF0000B00260020E968088023E062
:105A1000E96821F81B6037F81600A96821F81B0017
:105A200010E0A86830F81B0037F91610884203DA36
:105A3000A86830F81B0001E037F91600A96821F8C2
:105A40001B00761C38F91600584501D1A642E8DB48
:105A50000BF101000FFA80FBA642D9DB384615F0A6
:105A6000A5FC00BF58E60146B1F90200B1F90020DB
:105A7000904201DC012070470020FCE702800023F7
:105A80004380C2F101031BB20B807047B1F90020C3
:105A9000002A07DC0B8842885200D21C1A4412B23A
:105AA0000A800CE042880388D21A5200521D0B88EB
:105AB0001A4412B20A800288521E12B20280428830
:105AC000521C12B2428070471FB59FED1F0B204839
:105AD00080ED840B40F27711801DFAF7F1FB002076
